{
  "transactions": [
    {
      "hash": "0x2a06faf7ce5fec631988ca3f1e7a4b354ae955d09e274ad236435dff927dcbdb",
      "transactionType": "CREATE",
      "contractName": "TestToken",
      "contractAddress": "0x41ef555536354abe36da1968e0f702a532713f00",
      "function": null,
      "arguments": null,
      "transaction": {
        "from": "0x0b3d62df33521cdce79e87586d7c1534b00ecad7",
        "gas": "0xadeb0",
        "value": "0x0",
        "input": "0x60a060405234801561000f575f5ffd5b50604051806040016040528060098152602001682a32b9ba2a37b5b2b760b91b8152506040518060400160405280600381526020016254544b60e81b815250816003908161005d919061010e565b50600461006a828261010e565b505033608052506101c8565b634e487b7160e01b5f52604160045260245ffd5b600181811c9082168061009e57607f821691505b6020821081036100bc57634e487b7160e01b5f52602260045260245ffd5b50919050565b601f82111561010957805f5260205f20601f840160051c810160208510156100e75750805b601f840160051c820191505b81811015610106575f81556001016100f3565b50505b505050565b81516001600160401b0381111561012757610127610076565b61013b81610135845461008a565b846100c2565b6020601f82116001811461016d575f83156101565750848201515b5f19600385901b1c1916600184901b178455610106565b5f84815260208120601f198516915b8281101561019c578785015182556020948501946001909201910161017c565b50848210156101b957868401515f19600387901b60f8161c191681555b50505050600190811b01905550565b6080516108016101e75f395f818161017c01526102c501526108015ff3fe608060405234801561000f575f5ffd5b50600436106100a6575f3560e01c806340c10f191161006e57806340c10f191461011f57806370a082311461013457806395d89b411461015c578063a9059cbb14610164578063d5f3948814610177578063dd62ed3e146101b6575f5ffd5b806306fdde03146100aa578063095ea7b3146100c857806318160ddd146100eb57806323b872dd146100fd578063313ce56714610110575b5f5ffd5b6100b26101ee565b6040516100bf9190610671565b60405180910390f35b6100db6100d63660046106c1565b61027e565b60405190151581526020016100bf565b6002545b6040519081526020016100bf565b6100db61010b3660046106e9565b610297565b604051601281526020016100bf565b61013261012d3660046106c1565b6102ba565b005b6100ef610142366004610723565b6001600160a01b03165f9081526020819052604090205490565b6100b261033e565b6100db6101723660046106c1565b61034d565b61019e7f000000000000000000000000000000000000000000000000000000000000000081565b6040516001600160a01b0390911681526020016100bf565b6100ef6101c4366004610743565b6001600160a01b039182165f90815260016020908152604080832093909416825291909152205490565b6060600380546101fd90610774565b80601f016020809104026020016040519081016040528092919081815260200182805461022990610774565b80156102745780601f1061024b57610100808354040283529160200191610274565b820191905f5260205f20905b81548152906001019060200180831161025757829003601f168201915b5050505050905090565b5f3361028b81858561035a565b60019150505b92915050565b5f336102a485828561036c565b6102af8585856103e8565b506001949350505050565b336001600160a01b037f000000000000000000000000000000000000000000000000000000000000000016146103305760405162461bcd60e51b815260206004820152601660248201527513db9b1e4819195c1b1bde595c8818d85b881b5a5b9d60521b60448201526064015b60405180910390fd5b61033a8282610445565b5050565b6060600480546101fd90610774565b5f3361028b8185856103e8565b6103678383836001610479565b505050565b6001600160a01b038381165f908152600160209081526040808320938616835292905220545f198110156103e257818110156103d457604051637dc7a0d960e11b81526001600160a01b03841660048201526024810182905260448101839052606401610327565b6103e284848484035f610479565b50505050565b6001600160a01b03831661041157604051634b637e8f60e11b81525f6004820152602401610327565b6001600160a01b03821661043a5760405163ec442f0560e01b81525f6004820152602401610327565b61036783838361054b565b6001600160a01b03821661046e5760405163ec442f0560e01b81525f6004820152602401610327565b61033a5f838361054b565b6001600160a01b0384166104a25760405163e602df0560e01b81525f6004820152602401610327565b6001600160a01b0383166104cb57604051634a1406b160e11b81525f6004820152602401610327565b6001600160a01b038085165f90815260016020908152604080832093871683529290522082905580156103e257826001600160a01b0316846001600160a01b03167f8c5be1e5ebec7d5bd14f71427d1e84f3dd0314c0f7b2291e5b200ac8c7c3b9258460405161053d91815260200190565b60405180910390a350505050565b6001600160a01b038316610575578060025f82825461056a91906107ac565b909155506105e59050565b6001600160a01b0383165f90815260208190526040902054818110156105c75760405163391434e360e21b81526001600160a01b03851660048201526024810182905260448101839052606401610327565b6001600160a01b0384165f9081526020819052604090209082900390555b6001600160a01b0382166106015760028054829003905561061f565b6001600160a01b0382165f9081526020819052604090208054820190555b816001600160a01b0316836001600160a01b03167fddf252ad1be2c89b69c2b068fc378daa952ba7f163c4a11628f55a4df523b3ef8360405161066491815260200190565b60405180910390a3505050565b602081525f82518060208401528060208501604085015e5f604082850101526040601f19601f83011684010191505092915050565b80356001600160a01b03811681146106bc575f5ffd5b919050565b5f5f604083850312156106d2575f5ffd5b6106db836106a6565b946020939093013593505050565b5f5f5f606084860312156106fb575f5ffd5b610704846106a6565b9250610712602085016106a6565b929592945050506040919091013590565b5f60208284031215610733575f5ffd5b61073c826106a6565b9392505050565b5f5f60408385031215610754575f5ffd5b61075d836106a6565b915061076b602084016106a6565b90509250929050565b600181811c9082168061078857607f821691505b6020821081036107a657634e487b7160e01b5f52602260045260245ffd5b50919050565b8082018082111561029157634e487b7160e01b5f52601160045260245ffdfea2646970667358221220e90d2e96c0376770640fba678398eb3294f037762d4af71d22157aa1401663a464736f6c634300081d0033",
        "nonce": "0x2",
        "chainId": "0x14a34"
      },
      "additionalContracts": [],
      "isFixedGasLimit": false
    },
    {
      "hash": "0xcedec77afdcde6a54fd265864dcf14b05c8156271befcccb77ece60158e2fab8",
      "transactionType": "CALL",
      "contractName": "TestToken",
      "contractAddress": "0x41ef555536354abe36da1968e0f702a532713f00",
      "function": "mint(address,uint256)",
      "arguments": [
        "0x0b3d62DF33521cdcE79E87586d7C1534b00EcAd7",
        "1000000000000000000000000"
      ],
      "transaction": {
        "from": "0x0b3d62df33521cdce79e87586d7c1534b00ecad7",
        "to": "0x41ef555536354abe36da1968e0f702a532713f00",
        "gas": "0x18724",
        "value": "0x0",
        "input": "0x40c10f190000000000000000000000000b3d62df33521cdce79e87586d7c1534b00ecad700000000000000000000000000000000000000000000d3c21bcecceda1000000",
        "nonce": "0x3",
        "chainId": "0x14a34"
      },
      "additionalContracts": [],
      "isFixedGasLimit": false
    }
  ],
  "receipts": [
    {
      "status": "0x1",
      "cumulativeGasUsed": "0x598569",
      "logs": [],
      "logsBloom": "0x00000000000000000000000000000000000000000000000000000000000000000000000000000000000000000000000000000000000000000000000000000000000000000000000000000000000000000000000000000000000000000000000000000000000000000000000000000000000000000000000000000000000000000000000000000000000000000000000000000000000000000000000000000000000000000000000000000000000000000000000000000000000000000000000000000000000000000000000000000000000000000000000000000000000000000000000000000000000000000000000000000000000000000000000000000000",
      "type": "0x2",
      "transactionHash": "0x2a06faf7ce5fec631988ca3f1e7a4b354ae955d09e274ad236435dff927dcbdb",
      "transactionIndex": "0x16",
      "blockHash": "0x512a177683fdfb96056f7c81f65aab58cbcd6cc971029816f388f104aea9c839",
      "blockNumber": "0x19cc323",
      "gasUsed": "0x85c88",
      "effectiveGasPrice": "0xf43da",
      "from": "0x0b3d62df33521cdce79e87586d7c1534b00ecad7",
      "to": null,
      "contractAddress": "0x41ef555536354abe36da1968e0f702a532713f00",
      "l1BaseFeeScalar": "0x44d",
      "l1BlobBaseFee": "0x4",
      "l1BlobBaseFeeScalar": "0xa118b",
      "l1Fee": "0xba7a9b",
      "l1GasPrice": "0x6a30a",
      "l1GasUsed": "0x63a7"
    },
    {
      "status": "0x1",
      "cumulativeGasUsed": "0x5e69d7",
      "logs": [
        {
          "address": "0x41ef555536354abe36da1968e0f702a532713f00",
          "topics": [
            "0xddf252ad1be2c89b69c2b068fc378daa952ba7f163c4a11628f55a4df523b3ef",
            "0x0000000000000000000000000000000000000000000000000000000000000000",
            "0x0000000000000000000000000b3d62df33521cdce79e87586d7c1534b00ecad7"
          ],
          "data": "0x00000000000000000000000000000000000000000000d3c21bcecceda1000000",
          "blockHash": "0xd34a207df0be534d782ae2cf7e1807f686bbb15fa1137b6750d032702c2f3464",
          "blockNumber": "0x19cc323",
          "blockTimestamp": "0x684ce526",
          "transactionHash": "0xcedec77afdcde6a54fd265864dcf14b05c8156271befcccb77ece60158e2fab8",
          "transactionIndex": "0x19",
          "logIndex": "0x110",
          "removed": false
        }
      ],
      "logsBloom": "0x00000000000000000000000000000000000000000000000800000000000000000200000000000000000000000000000000000000000000000000000000000000000000008000000000000008000000000000000000000000000000000000000000000040020000000000000000000800000000000000000000000010000000000000000000000000000000000000000000000000000000000000000000000000000000000000000000000000000000000000000000000000000000000000000000000002000000000000000040000000000000000000000000000000000020000000000004000000000000000000000000000000000000000000000000000000",
      "type": "0x2",
      "transactionHash": "0xcedec77afdcde6a54fd265864dcf14b05c8156271befcccb77ece60158e2fab8",
      "transactionIndex": "0x19",
      "blockHash": "0xd34a207df0be534d782ae2cf7e1807f686bbb15fa1137b6750d032702c2f3464",
      "blockNumber": "0x19cc323",
      "gasUsed": "0x10b73",
      "effectiveGasPrice": "0xf45a4",
      "from": "0x0b3d62df33521cdce79e87586d7c1534b00ecad7",
      "to": "0x41ef555536354abe36da1968e0f702a532713f00",
      "contractAddress": null,
      "l1BaseFeeScalar": "0x44d",
      "l1BlobBaseFee": "0x4",
      "l1BlobBaseFeeScalar": "0xa118b",
      "l1Fee": "0xbb20e",
      "l1GasPrice": "0x6a30a",
      "l1GasUsed": "0x640"
    }
  ],
  "libraries": [],
  "pending": [],
  "returns": {},
  "timestamp": 1749869863,
  "chain": 84532,
  "commit": "973a2e2"
}